:020000040800F2
:100000000004002045010008B9020008B102000800
:10001000B50200088D0100088104000800000000FE
:100020000000000000000000000000003103000894
:100030009101000800000000BB0200081D04000838
:100040005F0100085F0100085F0100085F01000810
:100050005F0100085F0100085F0100085F01000800
:100060005F0100085F0100085F0100085F010008F0
:100070005F0100085F0100085F0100085F010008E0
:100080005F0100085F0100085F0100085F010008D0
:100090005F0100085F0100085F0100085F010008C0
:1000A0005F0100085F0100085F0100085F010008B0
:1000B0005F0100085F0100085F0100085F010008A0
:1000C0005F0100085F0100085F0100085F01000890
:1000D0005F0100085F0100085F0100085F01000880
:1000E0005F0100085F0100085F0100085F01000870
:1000F0005F0100085F0100085F0100085F01000860
:100100005F0100085F0100085F0100085F0100084F
:100110005F0100085F0100085F0100085F0100083F
:100120005F0100085F0100085F0100085F0100082F
:10013000DFF80CD000F018F800480047AF040008C2
:10014000000400200648804706480047FEE7FEE717
:10015000FEE7FEE7FEE7FEE7FEE7FEE7FEE7FEE777
:100160002104000831010008064C074D06E0E06854
:1001700040F0010394E8070098471034AC42F6D3EE
:10018000FFF7DAFFA0050008B005000800BFFEE792
:1001900070472DE9F041024600250026002000238B
:1001A0000024002791F803C00CF00F0591F803C05C
:1001B0000CF0100CBCF1000F03D091F802C04CEA17
:1001C000050591F800C0BCF1000F31D01468002083
:1001D0002BE04FF0010C0CFA00F3B1F800C00CEA70
:1001E00003069E4220D183004FF00F0C0CFA03F758
:1001F000BC4305FA03FC4CEA040491F803C0BCF1CB
:10020000280F06D14FF0010C0CFA00FCC2F814C004
:100210000AE091F803C0BCF1480F05D14FF0010C82
:100220000CFA00FCC2F810C0401C0828D1D314609E
:10023000B1F800C0BCF1FF0F34DD546800202EE09F
:1002400000F1080C4FF0010808FA0CF3B1F800C0F7
:100250000CEA03069E4221D183004FF00F0C0CFAEA
:1002600003F7BC4305FA03FC4CEA040491F803C00D
:10027000BCF1280F05D100F1080C08FA0CF8C2F8FF
:10028000148091F803C0BCF1480F07D100F1080CAD
:100290004FF0010808FA0CF8C2F81080401C08283A
:1002A000CED35460BDE8F081416170470161704771
:1002B00000BFFEE700BFFEE77047704729B1064A5E
:1002C00092690243044B9A6104E0034A92698243B3
:1002D000014B9A61704700000010024021B1028872
:1002E00042F04002028004E002884FF6BF731A40D9
:1002F0000280704710B50022028802F441520B8838
:100300004C8823438C882343CC8823430C89234384
:100310004C8923438C892343CC8923431A4302808D
:10032000838B4FF2FF74234083830B8A038210BDBB
:10033000704710B500F002F810BD00000CB50020A9
:10034000019000903348006840F4803031490860E3
:1003500000BF3048006800F4003000900198401C55
:100360000190009818B90198B0F5A06FF1D1294813
:10037000006800F4003010B10120009001E000207E
:1003800000900098012843D12348006840F01000F5
:10039000214908600846006820F00300086008460C
:1003A000006840F0020008601A4840681949486037
:1003B0000846406848600846406840F480604860ED
:1003C0000846406820F47C1048600846406840F4C5
:1003D000E81048600846006840F08070086000BF80
:1003E0000C48006800F000700028F9D00948406807
:1003F00020F00300074948600846406840F00200CA
:10040000486000BF0348406800F00C000828F9D19C
:100410000CBD0000001002400020024070470000A8
:1004200010B51348006840F0010011490860084603
:100430004068104908400E494860084600680E4967
:1004400008400B4908600846006820F480200860D6
:100450000846406820F4FE0048604FF41F008860A2
:10046000FFF767FF4FF000600449086010BD00000F
:10047000001002400000FFF8FFFFF6FE08ED00E06C
:1004800000BFFEE702E008C8121F08C1002AFAD127
:1004900070477047002001E001C1121F002AFBD104
:1004A000704710B501213D20FFF708FF10BD10B5C2
:1004B00000F062F8002010BD00B585B001210803EE
:1004C000FFF7FCFE1020ADF80C000020ADF808008E
:1004D000ADF806000720ADF810000020ADF80400CC
:1004E000ADF80000ADF80E004FF48270ADF80200D8
:1004F00069460448FFF7FEFE01210248FFF7EEFEC1
:1005000005B000BD0030014008B518208DF803008B
:1005100003208DF802002020ADF800006946144841
:10052000FFF737FE4020ADF8000069461048FFF79E
:1005300030FE8020ADF8000069460D48FFF729FE27
:1005400010208DF80300ADF8000069460848FFF759
:1005500020FE0120ADF8000069460648FFF719FEAD
:100560000220ADF8000069460248FFF712FE08BD00
:1005700000080140000C014010B5FFF792FFFFF7A3
:10058000C3FFFFF799FF02210348FFF78DFE1021FB
:100590000248FFF78BFE10BD000C0140000801402F
:1005A000B0050008000000200004000094040008CA
:0400000508000131BD
:00000001FF
